:100000000C94C64E0C94F74E0C94F74E0C94F74E8D
:100010000C94F74E0C94C1610C94F74E0D94764AF3
:100020000C9493550C94F74E0C94F74E0C94F74E99
:100030000C9460580C94F74E0D94EC080C94AF6639
:100040000C94F74E0D9435110C94F74E0C94F74E1A
:100050000C94F74E0C94F74E0C94F74E0D949E4969
:100060000C94F74E0C94BC5B0C94F74E0C94F74E2A
:100070000C94F74E0D94B84E0C94F74E0C94F74E2A
:100080000C94F74E0C94F74E0C94F74E0C94F74EDC
:100090000C94785B0C94F74E0C94F74E0C94F74E3E
:1000A0000C94F74E0C94F74E0C9425610C94F74E7B
:1000B0000C94F74E0C9407610C94F74E0D947A0E45
:1000C0000C94F74E0C94F74E0C94F74E0C948E60F3
:1000D0000C94F74E0C94F74E0C94F74E0C94F74E8C
:1000E0000C94F74E0000000000000000000000002B
:1000F0000000000000000000000000000000000000
:100100005F5345435F4C414E470000000000000034
:1001100000000000000000000000000000000000DF
:1001200000000000000000000000000000000000CF
:1001300000000000000000000000000000000000BF
:1001400000000000000000000000000000000000AF
:10310000FFFF43726173682064657465637465646E
:103110002E00FFFF536F6D652070726F626C656DDE
:1031200020656E636F756E74657265642C205A2D10
:103130006C6576656C696E6720656E666F72636537
:1031400064202E2E2E00FFFF48656174696E672093
:1031500064697361626C656420627920736166657D
:1031600074792074696D65722E00FFFF53544F50BF
:103170005045442E00FFFF504155534544205448CC
:1031800045524D414C204552524F5200FFFF52656F
:10319000636F766572696E67207072696E7400FF86
:1031A000FF472D636F646520736C696365642066F7
:1031B0006F72206120646966666572656E74206C4A
:1031C0006576656C2E20436F6E74696E75653F0081
:1031D000FFFF472D636F646520736C69636564202E
:1031E000666F72206120646966666572656E742020
:1031F0006C6576656C2E20506C6561736520726518
:103200002D736C69636520746865206D6F64656CEF
:1032100020616761696E2E205072696E742063614F
:103220006E63656C6C65642E00FFFF472D636F64F1
:103230006520736C6963656420666F722061206E1F
:1032400065776572206669726D776172652E2050B0
:103250006C65617365207570646174652074686560
:10326000206669726D776172652E205072696E7486
:103270002063616E63656C6C65642E00FFFF472DF3
:10328000636F646520736C6963656420666F722088
:1032900061206E65776572206669726D776172650F
:1032A0002E20436F6E74696E75653F00FFFF472DDA
:1032B000636F646520736C6963656420666F722058
:1032C0006120646966666572656E74207072696EED
:1032D00074657220747970652E20436F6E74696E08
:1032E00075653F00FFFF472D636F646520736C6950
:1032F00063656420666F722061206469666665722A
:10330000656E74207072696E746572207479706570
:103310002E20506C656173652072652D736C696336
:103320006520746865206D6F64656C2061676169F4
:103330006E2E205072696E742063616E63656C6CD2
:1033400065642E00FFFF50726573732074686520FA
:103350006B6E6F6220746F20707265686561742097
:103360006E6F7A7A6C6520616E6420636F6E74692B
:103370006E75652E00FFFF506C656173652070727D
:1033800065737320746865206B6E6F6220746F20A4
:10339000756E6C6F61642066696C616D656E74003A
:1033A000FFFF52656D6F7665206F6C642066696CF7
:1033B000616D656E7420616E642070726573732038
:1033C000746865206B6E6F6220746F207374617215
:1033D00074206C6F6164696E67206E657720666922
:1033E0006C616D656E742E00FFFF616E64207072FB
:1033F00065737320746865206B6E6F6200FFFF4910
:103400006E736572742066696C616D656E7400FF21
:10341000FF436F6C6F72206E6F7420636F72726502
:10342000637400FFFF46696C616D656E74206E6F9A
:1034300074206C6F6164656400FFFF4368616E67B0
:10344000656420636F72726563746C793F00FFFF7F
:103450004C6F6164696E6720636F6C6F7200FFFF71
:103460004368616E676520737563636573732100DC
:10347000FFFF506C65617365206F70656E20696435
:103480006C657220616E642072656D6F7665206672
:10349000696C616D656E74206D616E75616C6C79BF
:1034A0002E00FFFF5761732066696C616D656E7455
:1034B00020756E6C6F6164207375636365737366EA
:1034C000756C3F00FFFF506C656173652075706718
:1034D000726164652E00FFFF4E6577206669726D2C
:1034E000776172652076657273696F6E20617661AF
:1034F000696C61626C653A00FFFF57616974696EBF
:103500006720666F722050494E44412070726F628E
:103510006520636F6F6C696E6700FFFF53656C65B4
:1035200063742065787472756465723A00FFFF50A9
:103530006C65617365207761697400FFFF4E6F20D1
:103540006D6F76652E00FFFF537461626C652061BC
:103550006D6269656E742074656D706572617475F5
:1035600072652032312D323643206973206E6565D5
:103570006465642061207269676964207374616E98
:10358000642069732072657175697265642E00FF2D
:10359000FF506C656173652072756E2058595A2012
:1035A00063616C6962726174696F6E2066697273BF
:1035B000742E00FFFF5761697420666F7220757367
:1035C00065722E2E2E00FFFF50494E44412063614C
:1035D0006C6962726174696F6E206661696C6564A2
:1035E00000FFFF50494E44412063616C6962726183
:1035F00074696F6E2069732066696E6973686564AB
:1036000020616E64206163746976652E20497420A0
:1036100063616E2062652064697361626C65642019
:10362000696E206D656E752053657474696E67737D
:103630002D3E50494E44412063616C2E00FFFF45F2
:103640007874727564657200FFFF4D6F7665205A5D
:1036500000FFFF4D6F7665205900FFFF4D6F7665C7
:10366000205800FFFF4372617368206465746563CE
:1036700074696F6E2063616E0A6265207475726E84
:103680006564206F6E206F6E6C7920696E0A4E6FD4
:10369000726D616C206D6F646500FFFF5741524E83
:1036A000494E473A0A4372617368206465746563E2
:1036B00074696F6E0A64697361626C656420696E17
:1036C0000A537465616C7468206D6F646500FFFF58
:1036D0004175746F6C6F6164696E672066696C61B7
:1036E0006D656E7420617661696C61626C65206FD6
:1036F0006E6C79207768656E2066696C616D656EA9
:10370000742073656E736F72206973207475726EA6
:103710006564206F6E2E2E2E00FFFF4552524F52D1
:103720003A2046696C616D656E742073656E736FC7
:1037300072206973206E6F7420726573706F6E648F
:10374000696E672C20706C656173652063686563C2
:103750006B20636F6E6E656374696F6E2E00FFFF82
:103760004D6F6465206368616E676520696E2070C7
:10377000726F67726573732E2E2E00FFFF436F709A
:10378000792073656C6563746564206C616E677520
:103790006167653F00FFFF436F6D6D756E697479FA
:1037A000206D61646500FFFF536865657420252EF8
:1037B00037730A5A206F66667365743A20252B3179
:1037C0002E33666D6D0A2563436F6E74696E756581
:1037D0000A2563526573657400FFFF506C65617361
:1037E00065206C6F61642066696C616D656E742024
:1037F00066697273742E00FFFF53656C65637420F5
:1038000066696C616D656E743A00FFFF46696C61B4
:103810006D656E7400FFFF3E43616E63656C00FF73
:10382000FF52756E6E696E672057697A6172642007
:1038300077696C6C2064656C657465206375727261
:10384000656E742063616C6962726174696F6E2069
:10385000726573756C747320616E64207374617229
:10386000742066726F6D2074686520626567696E8A
:103870006E696E672E20436F6E74696E75653F00CA
:10388000FFFF50726568656174696E67206E6F7ABC
:103890007A6C652E20506C65617365207761697460
:1038A0002E00FFFF4C6F6164696E672066696C6172
:1038B0006D656E7400FFFF506C6561736520696E05
:1038C000736572742066696C616D656E7420696ED3
:1038D000746F207468652065787472756465722CE5
:1038E000207468656E20707265737320746865203B
:1038F0006B6E6F6220746F206C6F61642069742E30
:1039000000FFFF506C6561736520696E73657274AA
:103910002066696C616D656E7420696E746F2074C9
:1039200068652066697273742074756265206F66BD
:1039300020746865204D4D552C207468656E20708C
:103940007265737320746865206B6E6F6220746F8C
:10395000206C6F61642069742E00FFFF546865203D
:103960007072696E7465722077696C6C2073746113
:103970007274207072696E74696E672061207A6952
:10398000672D7A6167206C696E652E20526F7461B5
:10399000746520746865206B6E6F6220756E746943
:1039A0006C20796F7520726561636820746865208A
:1039B0006F7074696D616C206865696768742E202A
:1039C000436865636B207468652070696374757201
:1039D000657320696E207468652068616E64626F2B
:1039E0006F6B202843616C6962726174696F6E202D
:1039F00063686170746572292E00FFFF53656C6502
:103A000063742074656D706572617475726520777A
:103A100068696368206D61746368657320796F7588
:103A200072206D6174657269616C2E00FFFF5365D1
:103A30006C65637420612066696C616D656E7420CD
:103A4000666F7220746865204669727374204C61D9
:103A50007965722043616C6962726174696F6E206E
:103A6000616E642073656C65637420697420696E8F
:103A700020746865206F6E2D73637265656E206DAE
:103A8000656E752E00FFFF4E6F7720492077696CB9
:103A90006C2063616C69627261746520646973741F
:103AA000616E6365206265747765656E2074697008
:103AB000206F6620746865206E6F7A7A6C6520616D
:103AC0006E642068656174626564207375726661F6
:103AD00063652E00FFFF596F752063616E20616C76
:103AE0007761797320726573756D652074686520E0
:103AF00057697A6172642066726F6D2043616C69E8
:103B000062726174696F6E202D3E2057697A61720E
:103B1000642E00FFFF506C65617365206368656308
:103B20006B206F75722068616E64626F6F6B2061CD
:103B30006E6420666978207468652070726F626CAC
:103B4000656D2E205468656E20726573756D6520F5
:103B50007468652057697A617264206279207265A1
:103B6000626F6F74696E6720746865207072696E29
:103B70007465722E00FFFF416C6C20697320646FC6
:103B80006E652E204861707079207072696E74695C
:103B90006E672100FFFF496620796F7520686176A6
:103BA00065206164646974696F6E616C207374650B
:103BB000656C207368656574732C2063616C696241
:103BC00072617465207468656972207072657365CE
:103BD000747320696E2053657474696E6773202D49
:103BE000204857205365747570202D2053746565E7
:103BF0006C207368656574732E00FFFF506C6561FF
:103C0000736520636C65616E2068656174626564CC
:103C100020616E64207468656E2070726573732015
:103C2000746865206B6E6F622E00FFFF446F207911
:103C30006F752077616E7420746F20726570656196
:103C400074206C617374207374657020746F2072BB
:103C50006561646A7573742064697374616E636509
:103C6000206265747765656E206E6F7A7A6C652068
:103C7000616E6420686561746265643F00FFFF5394
:103C8000656C656374206E6F7A7A6C6520707265FE
:103C9000686561742074656D7065726174757265B4
:103CA000207768696368206D617463686573207943
:103CB0006F7572206D6174657269616C2E00FFFF13
:103CC00049732066696C616D656E74206C6F616408
:103CD00065643F00FFFF54656D70206D6F64656C17
:103CE0002063616C2E2074616B657320617070724B
:103CF0006F782E203132206D696E732E00FFFF4EDB
:103D00006F7720492077696C6C20707265686561F7
:103D100074206E6F7A7A6C6520666F7220504C4109
:103D20002E00FFFF492077696C6C2072756E207A37
:103D30002063616C6962726174696F6E206E6F7767
:103D40002E00FFFF4E6F772072656D6F76652074D1
:103D500068652074657374207072696E7420667271
:103D60006F6D20737465656C2073686565742E00D3
:103D7000FFFF506C656173652072656D6F7665201D
:103D80007368697070696E672068656C70657273BE
:103D90002066697273742E00FFFF492077696C6C8E
:103DA0002072756E2078797A2063616C6962726125
:103DB00074696F6E206E6F772E2049742077696C5E
:103DC0006C2074616B6520617070726F782E203189
:103DD00032206D696E732E00FFFF46697273742C7A
:103DE00020492077696C6C2072756E20746865209C
:103DF00073656C667465737420746F2063686563A3
:103E00006B206D6F737420636F6D6D6F6E206173C7
:103E100073656D626C792070726F626C656D732E64
:103E200000FFFF48692C204920616D20796F757271
:103E3000204F726967696E616C20507275736120E2
:103E40006933207072696E7465722E20576F756CBD
:103E50006420796F75206C696B65206D6520746FC7
:103E600020677569646520796F75207468726F7555
:103E70006768207468652073657475702070726F50
:103E8000636573733F00FFFF48692C204920616D13
:103E900020796F7572204F726967696E616C20506E
:103EA00072757361206933207072696E7465722E49
:103EB00020492077696C6C20677569646520796F8B
:103EC00075207468726F75676820612073686F72FF
:103ED000742073657475702070726F636573732CD2
:103EE00020696E20776869636820746865205A2DA0
:103EF000617869732077696C6C2062652063616CFE
:103F0000696272617465642E205468656E2C207934
:103F10006F752077696C6C206265207265616479C9
:103F200020746F207072696E742E00FFFF452D6340
:103F30006F72726563743A00FFFF5A2D636F72727D
:103F40006563743A00FFFF592D636F727265637485
:103F50003A00FFFF582D636F72726563743A00FF79
:103F6000FF43757474657200FFFF4D6F64656C00EC
:103F7000FFFF53747269637400FFFF5761726E0034
:103F8000FFFF436865636B7300FFFF4E6F7A7A6CC7
:103F900065206368616E676500FFFF4E6F7A7A6C1B
:103FA0006520642E00FFFF4E6F6E6500FFFF416CC1
:103FB00070686162657400FFFF536F727400FFFFE9
:103FC00054696D6500FFFF5344206361726400FF14
:103FD000FF53656C656374206C616E67756167651E
:103FE00000FFFF52506920706F727400FFFF4C6930
:103FF0006E2E20636F7272656374696F6E00FFFFCF
:10400000485720536574757000FFFF462E20617578
:10401000746F6C6F616400FFFF44697361626C656B
:1040200020737465707065727300FFFF4D6F766565
:10403000206178697300FFFF54656D70657261746B
:1040400075726500FFFF50494E44412063616C2E3C
:1040500000FFFF52657365742058595A2063616CE4
:104060006962722E00FFFF5049442063616C6962EF
:10407000726174696F6E00FFFF426564206C657643
:10408000656C20636F727265637400FFFF4D65732A
:104090006820426564204C6576656C696E6700FF38
:1040A000FF43616C696272617465205A00FFFF43CF
:1040B000616C6962726174652058595A00FFFF5340
:1040C000656C667465737400FFFF42656C742074E0
:1040D00065737400FFFF57697A61726400FFFF4CDB
:1040E0006F616420616C6C00FFFF506C65617365EB
:1040F0002070756C6C206F75742066696C616D65DD
:104100006E7420696D6D6564696174656C7900FF1A
:10411000FF556E6C6F6164696E672066696C616DD6
:10412000656E7400FFFF526573657400FFFF526592
:104130006E616D6500FFFF4669727374206C617972
:1041400065722063616C2E00FFFF53656C656374BC
:1041500000FFFF537465656C2073686565747300B8
:10416000FFFF537570706F727400FFFF4661696CDA
:10417000207374617473204D4D5500FFFF466169D3
:104180006C20737461747300FFFF537461746973FE
:104190007469637300FFFF43616C696272617469E3
:1041A0006F6E00FFFF4175746F4C6F61642066692C
:1041B0006C616D656E7400FFFF4375742066696CF9
:1041C000616D656E7400FFFF456A65637420666902
:1041D0006C616D656E7400FFFF556E6C6F616420DD
:1041E00066696C616D656E7400FFFF4C6F616420E1
:1041F000746F206E6F7A7A6C6500FFFF4C6F61649C
:104200002066696C616D656E7400FFFF4E6F205310
:1042100044206361726400FFFF5072696E7420660F
:10422000726F6D20534400FFFF526573756D6520FA
:104230007072696E7400FFFF506175736520707253
:10424000696E7400FFFF54756E6500FFFF50726564
:104250006865617400FFFF4C6976652061646A756A
:104260007374205A00FFFF496E666F207363726596
:10427000656E00FFFF46696E697368696E67206D41
:104280006F76656D656E747300FFFF4272696768D3
:10429000746E65737300FFFF41737369737400FF7D
:1042A000FF53696C656E7400FFFF4F6E636500FF1E
:1042B000FF536F756E6400FFFF4C6F756400FFFF66
:1042C0004D4D55204D6F646500FFFF537465616C63
:1042D000746800FFFF4372617368206465742E0088
:1042E000FFFF4E6F726D616C00FFFF46616E7320C1
:1042F000636865636B00FFFF46696C2E2073656E13
:10430000736F7200FFFF4368616E67652066696CBA
:10431000616D656E7400FFFF466C6F7700FFFF53A1
:104320007065656400FFFF4D61676E65747320639F
:104330006F6D702E00FFFF4E2F4100FFFF5A2D7052
:10434000726F6265206E722E00FFFF4D657368000C
:10435000FFFF54696D656F757400FFFF4D6F6465F5
:1043600000FFFF4175746F00FFFF44696D00FFFFA0
:1043700042726967687400FFFF4C6576656C204483
:10438000696D6D656400FFFF4C6576656C20427257
:104390006967687400FFFF46616E2073706565642D
:1043A00000FFFF42656400FFFF4E6F7A7A6C650084
:1043B000FFFF53657474696E677300FFFF5965737F
:1043C00000FFFF4E6F00FFFF53746F702070726923
:1043D0006E7400FFFF436865636B696E67206669F2
:1043E0006C6500FFFF46696C6520696E636F6D70D8
:1043F0006C6574652E20436F6E74696E75652061FF
:104400006E797761793F00FFFF04526566726573CC
:104410006800FFFF4D61696E00FFFF5761697469B5
:104420006E6720666F72206E6F7A7A6C6520616E9F
:10443000642062656420636F6F6C696E6700FFFFC4
:1044400053656C662074657374204F4B00FFFF53F7
:10445000656C66207465737420737461727400FFF8
:10446000FF5072696E742066616E3A00FFFF486FFC
:1044700074656E642066616E3A00FFFF43616C698B
:1044800062726174696E6720686F6D6500FFFF413D
:104490006C6C20636F727265637400FFFF43686524
:1044A000636B696E672073656E736F727300FFFFD5
:1044B000436865636B696E6720686F74656E64003E
:1044C000FFFF436865636B696E672062656400FF88
:1044D000FF436865636B696E67205A206178697372
:1044E00000FFFF436865636B696E67205920617840
:1044F000697300FFFF436865636B696E672058202E
:104500006178697300FFFF436865636B696E6720BC
:10451000656E6473746F707300FFFF436172642093
:1045200072656D6F76656400FFFF4F6E00FFFF4F91
:10453000666600FFFF4261636B00FFFF486F7465B2
:104540006E64206174203238304321204E6F7A7AB5
:104550006C65206368616E67656420616E642074B9
:1045600069676874656E656420746F207370656335
:10457000733F00FFFF466F722061204E6F7A7A6CA6
:1045800065206368616E676520706C656173652086
:10459000726561640A70727573612E696F2F6E6F38
:1045A0007A7A6C652D6D6B337300FFFF50494420A0
:1045B00063616C2E2066696E697368656400FFFF35
:1045C0005049442063616C2E00FFFF5072696E7485
:1045D0002070617573656400FFFF5072696E74200E
:1045E00061626F7274656400FFFF5072696E74657A
:1045F00072206E6F7A7A6C65206469616D6574658E
:104600007220646966666572732066726F6D2074CD
:10461000686520472D636F64652E20506C6561735B
:104620006520636865636B207468652076616C75CE
:104630006520696E2073657474696E67732E2050EF
:1046400072696E742063616E63656C6C65642E00C4
:10465000FFFF5072696E746572206E6F7A7A6C65B6
:10466000206469616D65746572206469666665724F
:10467000732066726F6D2074686520472D636F64C8
:10468000652E20436F6E74696E75653F00FFFF4DA8
:104690004B3353206669726D77617265206465746F
:1046A0006563746564206F6E204D4B3320707269B2
:1046B0006E74657200FFFF426C61636B6F757420EE
:1046C0006F636375727265642E205265636F7665E1
:1046D00072207072696E743F00FFFF53656C6674E0
:1046E0006573742077696C6C2062652072756E202A
:1046F000746F2063616C69627261746520616363C9
:1047000075726174652073656E736F726C65737317
:10471000207265686F6D696E672E00FFFF546865D3
:104720007265206973207374696C6C2061206E65FA
:10473000656420746F206D616B65205A2063616C25
:104740006962726174696F6E2E20506C6561736569
:1047500020666F6C6C6F7720746865206D616E7574
:10476000616C2C2063686170746572204669727395
:10477000742073746570732C2073656374696F6E35
:104780002043616C6962726174696F6E20666C6F40
:10479000772E00FFFF44697374616E636520626564
:1047A000747765656E20746970206F662074686523
:1047B000206E6F7A7A6C6520616E64207468652063
:1047C0006265642073757266616365206861732039
:1047D0006E6F74206265656E2073657420796574F0
:1047E0002E20506C6561736520666F6C6C6F77204E
:1047F000746865206D616E75616C2C2063686170F2
:104800007465722046697273742073746570732CBA
:104810002073656374696F6E204669727374206CCF
:10482000617965722063616C6962726174696F6E2F
:104830002E00FFFF5072696E7465722068617320EC
:104840006E6F74206265656E2063616C696272616F
:10485000746564207965742E20506C6561736520E1
:10486000666F6C6C6F7720746865206D616E756122
:104870006C2C206368617074657220466972737471
:104880002073746570732C2073656374696F6E2078
:1048900043616C6962726174696F6E20666C6F77D8
:1048A0002E00FFFF4F6C642073657474696E67732C
:1048B00020666F756E642E2044656661756C742089
:1048C0005049442C20457374657073206574632EC1
:1048D0002077696C6C206265207365742E00FFFF81
:1048E0005761726E696E673A20626F7468207072E9
:1048F000696E746572207479706520616E64206DD4
:104900006F74686572626F6172642074797065207B
:104910006368616E6765642E00FFFF5761726E69A0
:104920006E673A207072696E746572207479706572
:10493000206368616E6765642E00FFFF5761726EC9
:10494000696E673A206D6F74686572626F61726438
:104950002074797065206368616E6765642E00FF5E
:10496000FF544845524D414C20414E4F4D414C590A
:1049700000FFFF526573756D696E67207072696E16
:104980007400FFFF50494E44412048656174696ED0
:104990006700FFFF43616C6962726174696F6E202A
:1049A000646F6E6500FFFF43616C696272617469D8
:1049B0006E67205A00FFFF42656420646F6E6500D9
:1049C000FFFF4265642048656174696E6700FFFF00
:1049D00048656174696E6720646F6E652E00FFFF25
:1049E00048656174696E6700FFFF4D4D5520666133
:1049F000696C7300FFFF4D4D55206C6F616420663C
:104A000061696C7300FFFF4D4D5520706F776572C3
:104A1000206661696C7300FFFF546F74616C2066DF
:104A200061696C7572657300FFFF4C61737420706F
:104A300072696E74206661696C7572657300FFFF40
:104A4000506F776572206661696C7572657300FFDF
:104A5000FF46696C2E2072756E6F75747300FFFFD0
:104A6000437261736800FFFF546F74616C00FFFF55
:104A70004C617374207072696E7400FFFF416D6247
:104A800069656E7400FFFF566F6C74616765730033
:104A9000FFFF54656D70657261747572657300FF18
:104AA000FF42656C742073746174757300FFFF536B
:104AB000656E736F7220696E666F00FFFF457874D4
:104AC000727564657220696E666F00FFFF58595AEF
:104AD0002063616C2E2064657461696C7300FFFF54
:104AE0005072696E74657220495020416464723A54
:104AF00000FFFF756E6B6E6F776E00FFFF4D4D55BB
:104B00003220636F6E6E656374656400FFFF4461FD
:104B100074653A00FFFF746F20756E6C6F616420DE
:104B200066696C616D656E7400FFFF746F206C6F59
:104B300061642066696C616D656E7400FFFF507280
:104B400065737320746865206B6E6F6200FFFF50A1
:104B5000726568656174696E6720746F206375742F
:104B600000FFFF50726568656174696E6720746F3D
:104B700020656A65637400FFFF5072656865617443
:104B8000696E6720746F20756E6C6F616400FFFF43
:104B900050726568656174696E6720746F206C6F10
:104BA000616400FFFF436F6F6C646F776E00FFFFFF
:104BB0005072656865617420746865206E6F7A7ADA
:104BC0006C652100FFFF4552524F523A00FFFF46ED
:104BD000696C616D656E7420657874727564696E58
:104BE000672026207769746820636F72726563742A
:104BF00020636F6C6F723F00FFFF4175746F6C6FC5
:104C00006164696E672066696C616D656E742069A8
:104C100073206163746976652C206A7573742070E3
:104C20007265737320746865206B6E6F6220616EAD
:104C30006420696E736572742066696C616D656E5F
:104C4000742E2E2E00FFFF546F74616C2066696C09
:104C5000616D656E7400FFFF546F74616C2070723B
:104C6000696E742074696D6500FFFF46696C616D43
:104C7000656E74207573656400FFFF5072696E7411
:104C80002074696D6500FFFF592064697374616E5B
:104C900063652066726F6D206D696E00FFFF4C6565
:104CA000667400FFFF526967687400FFFF4D65611D
:104CB000737572656420736B657700FFFF536C69D1
:104CC00067687420736B657700FFFF5365766572C4
:104CD0006520736B657700FFFF5B303B305D2070B4
:104CE0006F696E74206F666673657400FFFF4164C0
:104CF0006A757374696E67205A3A00FFFF526561E6
:104D0000722073696465205BE46D5D00FFFF46728D
:104D10006F6E7420736964655BE46D5D00FFFF5224
:104D20006967687420736964655BE46D5D00FFFF0B
:104D30004C6566742073696465205BE46D5D00FFFB
:104D4000FF5365742074656D70657261747572656A
:104D50003A00FFFF426564206C6576656C696E679A
:104D6000206661696C65642E2053656E736F7220D6
:104D70006469646E277420747269676765722E2097
:104D8000446562726973206F6E206E6F7A7A6C650B
:104D90003F2057616974696E6720666F7220726583
:104DA0007365742E00FFFF506C656173652075702C
:104DB00064617465206669726D7761726520696EE1
:104DC00020796F7572204D4D55322E2057616974D0
:104DD000696E6720666F722072657365742E00FFBE
:104DE000FF4D4D55204F4B2E20526573756D696EEA
:104DF000672E2E2E00FFFF4D4D55204F4B2E20527B
:104E00006573756D696E6720706F736974696F6E15
:104E10002E2E2E00FFFF4D4D55204F4B2E2052655C
:104E200073756D696E672074656D706572617475F8
:104E300072652E2E2E00FFFF46697820746865206B
:104E4000697373756520616E64207468656E207087
:104E50007265737320627574746F6E206F6E204D6F
:104E60004D5520756E69742E00FFFF507265737387
:104E700020746865206B6E6F6220746F207265739A
:104E8000756D65206E6F7A7A6C652074656D7065DE
:104E90007261747572652E00FFFF4D4D55206E6571
:104EA000656473207573657220617474656E7469CE
:104EB0006F6E2E00FFFF43757474696E672066691C
:104EC0006C616D656E7400FFFF506C6561736520E9
:104ED00072656D6F76652066696C616D656E7420B4
:104EE000616E64207468656E2070726573732074DF
:104EF0006865206B6E6F622E00FFFF456A65637404
:104F0000696E672066696C616D656E7400FFFF4DA8
:104F10004D55206C6F6164206661696C656400FFAB
:104F2000FF536865657400FFFF4E6F7420737069EE
:104F30006E6E696E6700FFFF5370696E6E696E6713
:104F400000FFFF46616E207465737400FFFF5365B8
:104F50006C6674657374206661696C656400FFFF3C
:104F600046616C73652074726967676572696E6704
:104F700000FFFF46696C616D656E742073656E732A
:104F80006F7200FFFF5377617070656400FFFF462A
:104F9000726F6E742F6C6566742066616E7300FFAD
:104FA000FF4178697300FFFF41786973206C656E7B
:104FB00067746800FFFF4C6F6F73652070756C6CD1
:104FC000657900FFFF4C65667420686F74656E64D8
:104FD0002066616E3F00FFFF46726F6E7420707234
:104FE000696E742066616E3F00FFFF456E647374E6
:104FF0006F70206E6F742068697400FFFF456E64E7
:1050000073746F7000FFFF4D6F746F7200FFFF4588
:105010006E6473746F707300FFFF576972696E6717
:10502000206572726F7200FFFF4265642F486561F0
:1050300074657200FFFF4E6F7420636F6E6E656360
:1050400074656400FFFF4865617465722F5468657C
:10505000726D6973746F7200FFFF506C65617365E8
:1050600020636865636B3A00FFFF53656C66746587
:105070007374206572726F722100FFFF58595A20B5
:1050800063616C6962726174696F6E20616C6C201F
:1050900072696768742E20536B65772077696C6C32
:1050A00020626520636F7272656374656420617548
:1050B000746F6D61746963616C6C792E00FFFF58C9
:1050C000595A2063616C6962726174696F6E206104
:1050D0006C6C2072696768742E20582F5920617893
:1050E00065732061726520736C696768746C7920E0
:1050F000736B657765642E20476F6F64206A6F62FB
:105100002100FFFF58595A2063616C696272617413
:10511000696F6E206F6B2E20582F59206178657350
:10512000206172652070657270656E646963756C6C
:1051300061722E20436F6E67726174756C61746961
:105140006F6E732100FFFF58595A2063616C6962CA
:10515000726174696F6E20636F6D70726F6D6973C9
:1051600065642E2052696768742066726F6E7420C1
:1051700063616C6962726174696F6E20706F696ED1
:1051800074206E6F7420726561636861626C652E55
:1051900000FFFF58595A2063616C6962726174693B
:1051A0006F6E20636F6D70726F6D697365642E2012
:1051B00046726F6E742063616C6962726174696FAC
:1051C0006E20706F696E7473206E6F7420726561EB
:1051D000636861626C652E00FFFF58595A20636155
:1051E0006C6962726174696F6E206661696C656476
:1051F0002E2052696768742066726F6E7420636136
:105200006C6962726174696F6E20706F696E742070
:105210006E6F7420726561636861626C652E00FF59
:10522000FF58595A2063616C6962726174696F6ECC
:10523000206661696C65642E2046726F6E7420630F
:10524000616C6962726174696F6E20706F696E74EF
:1052500073206E6F7420726561636861626C652E85
:1052600000FFFF58595A2063616C6962726174696A
:105270006F6E206661696C65642E20506C65617389
:105280006520636F6E73756C7420746865206D6142
:105290006E75616C2E00FFFF58595A2063616C696E
:1052A00062726174696F6E206661696C65642E203C
:1052B0004265642063616C6962726174696F6E201B
:1052C000706F696E7420776173206E6F7420666FE3
:1052D000756E642E00FFFF506C6561736520706C05
:1052E00061636520737465656C20736865657420FF
:1052F0006F6E20686561746265642E00FFFF5465FF
:105300006D70206D6F64656C206E6F742063616CCE
:1053100069627261746564207965742E00FFFF50C4
:105320006C6163652061207368656574206F662019
:10533000706170657220756E646572207468652096
:105340006E6F7A7A6C6520647572696E6720746816
:10535000652063616C6962726174696F6E206F664B
:10536000206669727374203420706F696E74732EB6
:1053700020496620746865206E6F7A7A6C652063B8
:10538000617463686573207468652070617065720C
:105390002C20706F776572206F66662074686520B8
:1053A0007072696E74657220696D6D65646961748F
:1053B000656C792E00FFFF506C6561736520726526
:1053C0006D6F766520737465656C207368656574B0
:1053D0002066726F6D20686561746265642E00FFDF
:1053E000FF497320737465656C207368656574206C
:1053F0006F6E20686561746265643F00FFFF5365EE
:1054000061726368696E67206265642063616C69BC
:1054100062726174696F6E20706F696E7400FFFF55
:105420004D6561737572696E672072656665726538
:105430006E636520686569676874206F66206361C4
:105440006C6962726174696F6E20706F696E74004E
:10545000FFFF506C6561736520636C65616E20743D
:105460006865206E6F7A7A6C6520666F7220636162
:105470006C6962726174696F6E2E20436C69636B34
:10548000207768656E20646F6E652E00FFFF4175A2
:10549000746F20686F6D6500FFFF536F7274696EE3
:1054A000672066696C657300FFFF536F6D6520664A
:1054B000696C65732077696C6C206E6F742062650F
:1054C00020736F727465642E204D61782E204E6FAC
:1054D0002E206F662066696C657320696E2031200E
:1054E000666F6C64657220666F7220736F72746988
:1054F0006E67206973203130302E003F3F00526FBD
:105500006D616E61004872766174736B69004D6104
:105510006779617200536C6F76656E63696E6100C6
:105520004E6F72736B005376656E736B61004E65E0
:105530006465726C616E647300506F6C736B6900AC
:105540004974616C69616E6F004672616E63616976
:105550007300457370616E6F6C004465757473639E
:10556000680043657374696E6100456E676C6973AA
:105570006800256C75206279746573207772697490
:1055800074656E20746F20255320617420616464FB
:10559000726573732030782530346C780A004425A6
:1055A00064202D20526561642F577269746520252F
:1055B000530A0020436F756E7420583A200045301E
:1055C0003A25642052504D2050524E313A256420E5
:1055D00052504D204530403A25752050524E3140B2
:1055E0003A25640A00526573656E640025533A20BB
:1055F000256C640A25530A00496E616374697669F3
:1056000074792053687574646F776E004B494C4C05
:1056100045442E20005072696E7465722068616C7A
:105620007465642E206B696C6C28292063616C6C36
:10563000656421004B494C4C3A2025640A005072A5
:10564000696E7465722073746F7070656420647520
:105650006520746F206572726F72732E205375709F
:105660006572766973696F6E2072657175697265AE
:10567000642E004D32323120496E76616C696420AF
:10568000657874727564657220004D323138204936
:105690006E76616C696420657874727564657220D9
:1056A000004D31303920496E76616C69642065782F
:1056B00074727564657220004D31303520496E7604
:1056C000616C696420657874727564657220004D40
:1056D00031303420496E76616C696420657874726B
:1056E000756465722000504F5745522050414E4915
:1056F000432044455445435445440055564C4F209F
:105700002D20656E642025640A0055564C4F5F5469
:10571000494E59202D20656E642025640A00776F5C
:10572000726C6420636F6F7264696E617465733A42
:105730002028252E33662C20252E33662C20252E5E
:105740003366290A0043757272656E7420706F7338
:10575000205A5F415849533A252E33660A437572E1
:1057600072656E7420706F7320455F415849533ADB
:10577000252E33660A00416674657220776169746C
:10578000696E6720666F722074656D703A0A4375A2
:105790007272656E7420706F7320585F4158495360
:1057A0003A252E33660A43757272656E7420706FE7
:1057B0007320595F415849533A252E33660A0064D5
:1057C000756D7020636C65617265640A006E6F2090
:1057D00064756D7020617661696C61626C650A0048
:1057E000443231202D2072656164206372617368D8
:1057F0002064756D700A006E6F2064756D70206195
:105800007661696C61626C650A0064756D70206315
:105810006F6D706C6574656420696E20256C756DA4
:10582000730A0058464C41534800454550524F4D6D
:10583000005352414D00442D31202D20456E646CA3
:10584000657373206C6F6F700A0053442070726927
:105850006E74696E672062797465200041637469B3
:1058600076652045787472756465723A2000496ED9
:1058700076616C6964206578747275646572005530
:105880006E6B6E6F776E20636F6D6D616E643A2024
:1058900022004D32303020496E76616C696420659B
:1058A0007874727564657220007A5F6D61783A2051
:1058B000007A5F6D696E3A2000795F6D61783A20F9
:1058C00000795F6D696E3A2000785F6D61783A20EB
:1058D00000545249474745524544006F70656E0079
:1058E000785F6D696E3A20005265706F7274696EF0
:1058F0006720656E6473746F702073746174757360
:105900000053494C454E54004E4F524D414C0025DA
:1059100053204D4F44453A2050657263656E7420A4
:10592000646F6E653A20256868643B207072696E0A
:10593000742074696D652072656D61696E696E674A
:1059400020696E206D696E733A2025643B204368A0
:10595000616E676520696E206D696E733A202564FB
:105960000A00456E642066696C65206C697374007A
:10597000426567696E2066696C65206C69737400A6
:10598000556E6B6E6F776E20256320636F64653A8A
:105990002025730A000A50494E44412074656D70F9
:1059A000657261747572653A20252E3166205A2021
:1059B000736869667420286D6D293A20252E336638
:1059C000000A537465703A2025642F360A000A5382
:1059D0007465703A2025642F362028736B697070C7
:1059E0006564290A50494E44412074656D706572A2
:1059F00061747572653A202564205A20736869665F
:105A00007420286D6D293A300A000A5A45524F3ADF
:105A100020252E33660A0073746172742074656DDC
:105A200070657261747572653A20252E31660A00C0
:105A300025642020252E326600255320583A202543
:105A40002E356620593A20252E3566205A3A2025D3
:105A50002E35660A00536C6565702E2E2E0045307B
:105A60003A25642052504D0A50524E303A25642057
:105A700052504D0A00202030002020310046494E6F
:105A800044410050494E44410057697A6172642094
:105A9000656E642073746174653A2025640A00534E
:105AA000706F6F6C4A6F696E004669726D776172D4
:105AB0006500466C6173684169720054656D7020C1
:105AC0004D6F64656C2063616C2E004572723A50B4
:105AD00052494E542046414E204552524F520045A5
:105AE00072723A484F54454E442046414E2045522A
:105AF000524F52002F2F20616374696F6E3A7265A6
:105B000073756D6564002F2F20616374696F6E3A41
:105B1000726573756D65002F2F20616374696F6EF8
:105B20003A63616E63656C0041786973206C656EE1
:105B300067746820646966666572656E63653A2598
:105B40002E33660A004D6561737572656420617855
:105B50006973206C656E6774683A252E33660A0097
:105B60004C434420737461747573206368616E677D
:105B7000656400534420636172642072656C6561E2
:105B80007365640046616B652073657269616C20A2
:105B90006E756D62657200452D636F6F6C206D6F61
:105BA000646500414C5446414E206465742E0045A6
:105BB000787465726E616C2053504920666C617315
:105BC000680A58464C415348206973206E6F742010
:105BD0007265732D0A706F6E64696E672E204C615A
:105BE0006E67756167650A73776974636820756E9F
:105BF000617661696C61626C652E0058464C415358
:105C000048206E6F7420726573706F6E64696E6782
:105C10002E00465720637261736820646574656363
:105C20007465642120596F752063616E20636F6E07
:105C300074696E7565207072696E74696E672E2066
:105C40004465627567206461746120617661696C86
:105C500061626C6520666F7220616E616C79736938
:105C6000732E20436F6E7461637420737570706F50
:105C7000727420746F207375626D6974206465742A
:105C800061696C732E002F2F20616374696F6E3A07
:105C900064756D705F617661696C61626C650050FE
:105CA00072757361206933204D4B3353204F4B2E57
:105CB00000437261736844657465637420454E41A6
:105CC000424C4544210043726173684465746563C6
:105CD000742044495341424C454400486F74656EFA
:105CE000642066616E20747970653A20002020502F
:105CF0006C616E6E65724275666665724279746536
:105D0000733A20002046726565204D656D6F72798B
:105D10003A2000207C20417574686F723A20002080
:105D20004C61737420557064617465643A2000207E
:105D3000536F6674776172652052657365740020D5
:105D40005761746368646F672052657365740020DF
:105D500042726F776E206F757420526573657400A0
:105D60002045787465726E616C20526573657400AD
:105D7000506F7765725570006572726F722077721E
:105D80006974696E6720746F2066696C6500446F82
:105D90006E6520736176696E672066696C652E009A
:105DA0006F6B0020746F6F206C6F6E672065787466
:105DB000727573696F6E2070726576656E74656456
:105DC0000020636F6C6420657874727573696F6E00
:105DD0002070726576656E74656400544D4320448E
:105DE0005249564552204F56455254454D50002574
:105DF000632533642F25642563005A25362E3266C9
:105E00002563005A2020202D2D2D200025632533C9
:105E1000642525002D2D2D002533640025335325C1
:105E20003373252500205344002020200055534281
:105E3000002025753E257500203F3E257500204633
:105E400025750020463F0025632D2D3A2D2D20205D
:105E500000256325337568202563256300256325A8
:105E60003032753A2530327525632563002F2F2097
:105E7000616374696F6E3A706175736564002F2F8A
:105E800020616374696F6E3A706175736500447563
:105E90006D70206D656D6F72790068656C702E7025
:105EA0007275736133642E636F6D00666F72756D0A
:105EB0002E707275736133642E636F6D007072752E
:105EC000736133642E636F6D0025533A0A253138B0
:105ED0002E32666D200A25533A0A2531306C6464EF
:105EE00020253032646820253032646D0025533A15
:105EF0000A2531382E32666D200A25533A0A25319B
:105F0000306C646820253032646D20253032647333
:105F10000025362E32666D6D0025530A25530A255D
:105F2000533A0A25533A0025332E32660100252DB7
:105F300031342E3134533A0A25530A252D31342E6B
:105F40003134533A25332E3266010A252D31342E51
:105F50003134533A25332E32660100656E71756512
:105F6000696E67202200446F6E65207072696E74DE
:105F7000696E672066696C65004D3131322063615E
:105F80006C6C65642E20456D657267656E63792063
:105F900053746F702E004E6F204C696E65204E75E5
:105FA0006D626572207769746820636865636B73DE
:105FB000756D2C204C617374204C696E653A20001D
:105FC0004E6F20436865636B73756D2077697468E5
:105FD000206C696E65206E756D6265722C204C6157
:105FE0007374204C696E653A2000636865636B7357
:105FF000756D206D69736D617463682C204C6173DD
:1060000074204C696E653A20004C696E65204E75AF
:106010006D626572206973206E6F74204C617374B9
:10602000204C696E65204E756D6265722B312C2097
:106030004C617374204C696E653A2000312F390031
:1060400025632533642F25642563004D65617375D1
:1060500072656420736B6577733A20256620256628
:106060000A0046697474696E67206661696C6564CC
:10607000203D3E2063616C6962726174696F6E20BD
:106080006661696C65642E0A0043616C69627261C5
:1060900074696F6E20737563636573732E0A0041B4
:1060A0006C6C20342063616C6962726174696F6E1C
:1060B00020706F696E747320666F756E642E0A00AF
:1060C000312F3400312F3400312F390053442063F5
:1060D000617264206F6B006F70656E526F6F742019
:1060E0006661696C656400766F6C756D652E696EAE
:1060F0006974206661696C656400534420696E6947
:1061000074206661696C006F70656E206661696CF1
:1061100065642C2046696C653A200043616E6E6FA1
:106120007420656E746572207375626469723A20BA
:1061300000084AD73B3BCE016E84BCBFFDC12F3D5A
:106140006C74319ABD56833DDA3D00C77F11BED9CC
:10615000E4BB4C3E916BAAAABE000000803F05A89C
:106160004CCDB2D44EB93836A9020C50B9918688BC
:10617000083CA6AAAA2ABE000000803F0763423658
:10618000B79BD8A71A39685618AEBAAB558C1D3CC8
:10619000B7CC5763BD6DEDFD753EF6177231BF008C
:1061A0000000803F08000000BE922449123EABAAC6
:1061B000AA2ABECDCCCC4C3E00000080BEABAAAA21
:1061C000AA3E00000000BF000000803F0000000069
:1061D00000084178D3BB4387D1133D190E3CC3BDA2
:1061E0004282AD2B3E68EC8276BED98FE1A93E4C4F
:1061F00080EFFFBE01C4FF7F3F00000000000C9451
:10620000C6E10C94EEF00C944DB30C94EADD0C94C2
:1062100013FE0C94A7B20D94FC9B0C9448B10C9403
:1062200019EE0C9441F00D94F0490D94A81E0C94B5
:1062300046B30C9482CE0C9465B00C947AEE0C9418
:1062400055F00C94DFC30C94A3B60D94AD1E0C94C2
:106250007EDE0D9458510C945BB10C94DCF30C94DD
:1062600098C00D94444A0C9453DC0C9407E20C94AF
:10627000F7E80C94BDC20C940BF90C9480B00C940C
:10628000C6C20D941D9C0C9408B40D94E11E0C9490
:1062900074C10D9475590C949AB60C940DC40C9459
:1062A000F9DD0C943EEF0D94B6520C9481B60C942B
:1062B0009FB60D94D7490C94D5C30D940E9C0C94A5
:1062C000D7B10C94AAC10C9498B50D94C91E0C9426
:1062D000D9E10D94091F0C94DEDE0D94ED9B0C9416
:1062E0009BB00C9469B00C940FE80D940F4A0C9479
:1062F0008AC00C94F7E30D94BD490C94CCB10C9476
:106300009EDE0C94C0B90D94D91E0C9488DE0C94BA
:1063100028E20C94CABA0C9437C00C941DE20C9479
:10632000DCB70C9474D00C943AB30C9426B20C9451
:106330006CFD0C9431B10D94B21E0C94F3C70C9407
:106340006EF90C9451EA0D94B9480C94C7C00C94A2
:1063500095B60C9417C40C94A4B00C9409DE0D945B
:10636000324A0C94BFCC0D94F11E0D94ADC80C9420
:1063700024C20C94B4C20D94B4530D94EF320C9417
:10638000D3CD0C94CAE20D946EB20C948BD50C94C0
:1063900089D50C9486B60C94F3F00C94F9C30C9444
:1063A00072F30C94CBC30C9476B20C9430C40C945E
:1063B000EAEC0D947E1E0C94EEDE0C9470B00D94FD
:1063C0000D410C9427F10D94A3500C94E7C10C944B
:1063D0001AC90C9469FD0C9403C40D94C11E0C944D
:1063E0005BF10C94A1B10D94F99B0D94011F0C94D9
:1063F00091B70C9471E10C94B3B00C9479B10C94F6
:10640000B3FD0C9403E90D94DD320C947EDD0C9405
:1064100026C40C943EC10C945B4F0D942F430C94F6
:106420006DB00C94BFCD0C94EEEB0C9450F80C9422
:106430003AC40C9458C40C949FE10C9484DE0C94E0
:1064400084B00C945BB00C9412E20C9458C80D9478
:106450002C1E0D94DA4C0C94A5CD0C945BB30C94CB
:1064600048DE0C9461C20D941A9C0C94A9D70D942B
:10647000B71E0C94B7B10C9476B00D94F91E0C9421
:10648000EDDF0D94E6320C94F1C30C94CEDD0C9448
:106490000BBA0D94D11E0D9496510C9496DE0C946B
:1064A0009CEB0C9419E80C94ECB60C9465B10D942B
:1064B000CF530C9454B30D9441580D94F8530C944D
:1064C000EFD10C9488B00D94CD500D94D3580C940A
:1064D0006DEB0C94F3E70C9459EC0C9453DE0C9494
:1064E000FBF70C944AE10C9446C80C9448FE0C94BB
:1064F00027EB0C946FF80C94B1D10C94FADB0C944C
:106500008ACA0D94FF500C947CB60C9461B00D9423
:10651000E91E0C9492B00C94E9C30C94C6C30C947D
:10652000CCDE0D94FF9B0C94E2B10C948EB00C94D5
:106530004EC40D94E3480C9459DD0C94B6DE0D94D2
:10654000741E0C9496B00D94A84B0C943FB30D940C
:10655000849B0C9444DB0C94145C0D94A89B0C94C9
:106560006DDE0D944F530D94BC500C94C3DE0D940E
:10657000909B0D94AC360C942EFE0C94ABB10C9405
:10658000EFEE0D94029C0C942AE80C9426B10C9426
:10659000BEC30D9460510D94771E0C94734F0C94F0
:1065A000D5B40C9454B20C94A0B00C949CB00C9440
:1065B0008DB10C94C9DE0C9407BB0C9444C40C94AC
:1065C0007AB00C94D7BB0C9490B60C948BB60D9407
:1065D000E2490D9443310C9460B30D94064A0C9437
:1065E00033E20C94AEB00C9463E26E616E00696E9F
:1065F00066004E414E494E495459494E46CDCCCC89
:106600003D0AD7233C17B7D13877CC2B329595E686
:10661000241FB14F0A000020410000C84200401C66
:106620004620BCBE4CCA1B0E5AAEC59D7400407AB3
:1066300010F35A00A0724E18090010A5D4E800000B
:10664000E87648170000E40B54020000CA9A3B00A9
:106650000000E1F505000080969800000040420F20
:10666000000000A08601000000102700000000E8E4
:1066700003000000006400000000000A00000000A9
:10668000000100000000002C76D888DC674F08234A
:10669000DFC1DFAE59E1B1B796E5E3E453C63AE6B0
:1066A00051997696E8E6C28426EB898C9B62ED4090
:1066B0007C6FFCEFBC9C9F40F2BAA56FA5F49005DF
:1066C0005A2AF75C936B6CF9676DC11BFCE0E40D13
:1066D00047FEF520E6B500D0ED902E030094357707
:1066E000050080841E080000204E0A000000C80C2F
:1066F000333333330F986E12831141EF8D21148998
:106700003BE65516CFFEE6DB18D1844B381BF77CF1
:106710001D901DA4BBE424203284725E228100C936
:10672000F124ECA1E53D276364696E6F70737578A1
:10673000585B00626F6F745F6170705F6D61676955
:1067400063203D30782530386C780A00626F6F74B2
:106750005F6170705F666C616773203D30782530D3
:1067600032780A00626F6F745F7265736572766566
:106770006420203D3078253032780A00626F6F74D3
:106780005F636F70795F73697A65203D307825307B
:1067900034780A00626F6F745F6473745F6164645D
:1067A0007220203D30782530386C780A00626F6F97
:1067B000745F7372635F6164647220203D3078257A
:1067C00030386C780A005553415254322072782088
:1067D00046756C6C2121210053657474696E677372
:1067E0002053746F72656400544D3A2073746F7255
:1067F00065642063616C6962726174696F6E20699F
:106800006E76616C69642C20726573657474696E50
:10681000670053746F7265642073657474696E6782
:10682000732072657472696576656400486172648C
:10683000636F6465642044656661756C742053659C
:106840007474696E6773204C6F61646564005632BE
:1068500000000000C8420000C8420000C843000019
:106860008C430000484300004843000040410000C2
:10687000F042E8030000E8030000C80000008813AD
:10688000000000409C4400409C44000000000000C8
:106890000000204E00000000204100002041CDCC2F
:1068A000CC3E00009040000000000000000000000E
:1068B0000000CDCCCC3E3D0A8141FF08433EB0995B
:1068C000AB438F42FC42E65A343F4C62B045000075
:1068D00000000040400000344200000000000000C2
:1068E0000000000041000000E03F0000C84200003E
:1068F000C842000040410000F042C0030000C00355
:106900000000C80000008813000010101020004094
:106910009C440000803F0000003F19140000004527
:106920004550524F4D204572726F720062757379F7
:106930003A2070617573656420666F7220696E70AD
:10694000757400627573793A20706175736564209F
:10695000666F72207573657200627573793A207084
:10696000726F63657373696E670000007F43008018
:1069700054430000524300000000000080C09A9978
:10698000193E00000000000080C09A99193E0000E6
:10699000A0400000A0400000004025336420737434
:1069A00065703D253264206D73636E743D253464DB
:1069B0000A0000007F43008058439AD95143FFFFEB
:1069C000FF20413A0020503A002042403A00204047
:1069D0003A00202F00205400202F0020423A0020AF
:1069E0002F00543A00206D6963726F6E7300457812
:1069F0006365737369766520626564206C6576658E
:106A00006C696E6720636F7272656374696F6E3A4A
:106A10002000426564206C6576656C696E6720664F
:106A200061696C65642E2053656E736F7220747299
:106A30006967676572656420746F6F20686967684D
:106A40002E00426564206C6576656C696E67206611
:106A500061696C65642E2053656E736F7220646982
:106A600073636F6E6E6563746564206F722063611B
:106A7000626C652062726F6B656E2E0020453A0075
:106A8000205A3A0020593A0020453A00205A3A004C
:106A900020593A00583A0067636F64655F4D37309C
:106AA0003120626567696E0A004D363030006673CA
:106AB000656E736F725F757064617465202D204D13
:106AC0003630300020573A0020453A00543A005AF8
:106AD000206C6976652061646A757374206F7574C3
:106AE000206F662072616E67652E2053657474692D
:106AF0006E6720746F20302E20436C69636B2074A6
:106B00006F20636F6E74696E75652E005A206C6914
:106B100076652061646A757374206F7574206F6682
:106B20002072616E67652E2053657474696E6720EC
:106B3000746F20300020423A0020453A00543A0059
:106B4000494E5434007265636F7665725F6D6163A0
:106B500068696E655F73746174655F6166746572A0
:106B60005F706F7765725F70616E69632C20696E0C
:106B7000697469616C200050525553412075766CE0
:106B80006F004734205330004D32362053256C754A
:106B9000004D3130362053004D32323020532564C1
:106BA00000473120462564004D38320047393220F5
:106BB0004525362E3366004731204525302E336675
:106BC000204632373030004D323034205025662098
:106BD00052256620542566004731205A256600500C
:106BE00052555341204D424C2056310047312058D8
:106BF00025662059256620463330303000506F73AB
:106C00006974696F6E20726561642066726F6D20B1
:106C1000656570726F6D3A004D3233202573002E1A
:106C200067636F002C20666565646D756C746970B0
:106C30006C793A0046656564726174653A00473163
:106C40002045252D302E3366204632373030004720
:106C5000312045352046313230004D3833004D313A
:106C6000303920532564004D3134302053256400E1
:106C70004D31303420532564004732382058205994
:106C8000004731205A252E336620463830300047E1
:106C900031205A252D302E33662046252D302E33B7
:106CA000660047312045252D302E33662046323789
:106CB0003030004D383300416476616E6365204B9F
:106CC0003D004B206F7574206F6620616C6C6F7790
:106CD00065642072616E6765210025336400200AB7
:106CE000200A20004D3232302053256900255341BF
:106CF00072632053657474696E67733A20503A4D1D
:106D00006178206C656E677468286D6D2920533A30
:106D10004D696E206C656E67746820286D6D292042
:106D20004E3A436F7272656374696F6E7320523AA4
:106D30004D696E207365676D656E747320463A53B6
:106D400065676D656E74732F7365632E0A25532016
:106D5000204D3231342050252E32662053252E32DC
:106D600066204E256420522564204625640A0025AD
:106D70005346696C616D656E742073657474696ED9
:106D800067733A2044697361626C65640A00255335
:106D900046696C616D656E742073657474696E67A5
:106DA000733A0A25532020204D3230302044252EBE
:106DB00032660A002553526574726163743A205337
:106DC0003D4C656E67746820286D6D2920463A53E6
:106DD0007065656420286D6D2F6D29205A3A205A00
:106DE0004C69667420286D6D290A25532020204D9A
:106DF0003230372053252E32662046252E3266202B
:106E00005A252E32660A25535265636F7665723AAB
:106E100020533D4578747261206C656E67746820FC
:106E2000286D6D2920463A537065656420286D6D84
:106E30002F6D290A25532020204D3230382053252C
:106E40002E32662046252E32660A25534175746F10
:106E50002D526574726163743A20533D3020746F13
:106E60002064697361626C652C203120746F206925
:106E70006E7465727072657420657874727564657D
:106E80002D6F6E6C79206D6F766573206173207243
:106E900065747261637473206F72207265636F76BC
:106EA00065726965730A25532020204D32303920E0
:106EB0005325640A00255350494420686561746273
:106EC00065642073657474696E67733A0A2553208C
:106ED00020204D3330342050252E32662049252E77
:106EE00032662044252E32660A002553504944203C
:106EF00073657474696E67733A0A25532020204DB8
:106F00003330312050252E32662049252E3266201E
:106F100044252E32660A0025535374657073207021
:106F2000657220756E69743A0A255320204D3932F6
:106F30002058252E32662059252E3266205A252EBD
:106F400032662045252E32660A25535553746570E6
:106F5000207265736F6C7574696F6E3A200A2553E1
:106F6000204D3335302058256420592564205A257A
:106F700064204525640A25534D6178696D756D203F
:106F8000666565647261746573202D206E6F726D25
:106F9000616C20286D6D2F73293A0A255320204DEE
:106FA0003230332058252E32662059252E32662065
:106FB0005A252E32662045252E32660A25534D610C
:106FC00078696D756D20666565647261746573209E
:106FD0002D20737465616C746820286D6D2F732982
:106FE0003A0A255320204D3230332058252E326660
:106FF0002059252E3266205A252E32662045252E10
:1070000032660A25534D6178696D756D2061636341
:10701000656C65726174696F6E202D206E6F726D84
:10702000616C20286D6D2F7332293A0A2553202078
:107030004D3230312058256C752059256C75205AF9
:10704000256C752045256C750A25534D6178696D51
:10705000756D20616363656C65726174696F6E2024
:107060002D20737465616C746820286D6D2F7332E8
:10707000293A0A255320204D3230312058256C758D
:107080002059256C75205A256C752045256C750A8C
:107090002553416363656C65726174696F6E3A2054
:1070A000503D7072696E742C20523D72657472612D
:1070B00063742C20543D74726176656C0A255320EC
:1070C000204D3230342050252E32662052252E326B
:1070D000662054252E32660A2553416476616E631C
:1070E0006564207661726961626C65733A20533D14
:1070F0004D696E20666565647261746520286D6DEA
:107100002F73292C20543D4D696E20747261766571
:107110006C20666565647261746520286D6D2F73DF
:10712000292C20423D6D696E696D756D2073656710
:107130006D656E742074696D6520286D73292C202F
:10714000583D6D6178696D756D205859206A65727A
:107150006B20286D6D2F73292C20205A3D6D61788E
:10716000696D756D205A206A65726B20286D6D2FD0
:1071700073292C2020453D6D6178696D756D204522
:10718000206A65726B20286D6D2F73290A255320A4
:10719000204D3230352053252E32662054252E3294
:1071A000662042252E32662058252E32662059252B
:1071B0002E3266205A252E32662045252E32660A4A
:1071C0002553486F6D65206F666673657420286D62
:1071D0006D293A0A255320204D3230362058252E6D
:1071E00032662059252E3266205A252E32660A0034
:1071F0004625642025640A004D4D55203C3D20273E
:10720000462564202564270A00544D3A20525B2508
:10721000755D20657374696D61742E00544D3A205C
:10722000255320522025644300544D3A20255320F5
:1072300043206573742E00544D3A20636F6F6C20A9
:10724000646F776E203C25644300726566696E65E5
:1072500000696E697469616C00544D3A2063616C19
:107260006962722E206661696C65642100544D3A32
:107270002063616C6962726174696F6E20737461FE
:10728000727400544D3A2043616C2E204E4F5420AE
:1072900049444C45004361703A25533A25630A003E
:1072A00050525553415F4D4D553200455854454E4F
:1072B0004445445F4D3230004155544F5245504F84
:1072C00052545F504F534954494F4E004155544F0B
:1072D0005245504F52545F46414E53004155544F12
:1072E0005245504F52545F54454D500000332E319B
:1072F000322E302D524331005A30005A310059306D
:1073000000593100583000583100456E64207374C4
:107310006F707320646961670044656C6574696FA0
:107320006E206661696C65642C2046696C653A2044
:107330000046696C652064656C657465643A004E4E
:107340006F74205344207072696E74696E670050C8
:1073500072696E74207361766564005344207072A4
:10736000696E7420706175736564002533642F2520
:107370003364004F4B004241440052414D426F2064
:1073800046414E200043524153485F43414E4345DE
:107390004C0043524153485F5245434F56455200BB
:1073A00043524153485F5245434F564552002228AD
:1073B0003229004475706C696361746520542D63D3
:1073C0006F64652069676E6F7265642E00496E7622
:1073D000616C6964205420636F64652E002C204D1D
:1073E00039303720452069676E6F726564006E6FB3
:1073F0002076616C696420636F6D6D616E64002C32
:1074000020002C20002C20006E2F61007A65726F06
:1074100072697A656400666163746F72792072655F
:1074200073746F726564002C20002C20002C2000E7
:107430006E2F6100696E6465782C2074656D702C08
:107440002075737465702C20756D0050494E444151
:107450002063616C207374617475733A2000503A34
:10746000005761697420666F722050494E44412074
:107470007461726765742074656D7065726174758E
:1074800072653A004155544F004C414E47205345D8
:107490004C20464F524345440020643A0020693A4C
:1074A0000020703A0020643A0020693A0020703AC7
:1074B00000256925250A00256925250A002228318D
:1074C000290030303030303030302D303030302DF9
:1074D000303030302D303030302D303030303030B2
:1074E0003030303030300020555549443A003100BA
:1074F0002045585452554445525F434F554E543AD7
:10750000005072757361206933204D4B3353002056
:107510004D414348494E455F545950453A00312E3C
:107520003000206261736564206F6E204D61726C63
:10753000696E204649524D574152455F55524C3A6B
:1075400068747470733A2F2F6769746875622E635C
:107550006F6D2F707275736133642F507275736124
:107560002D4669726D776172652050524F544F43BA
:107570004F4C5F56455253494F4E3A004649524D83
:10758000574152455F4E414D453A50727573612DDA
:107590004669726D7761726520004D313133205339
:1075A0000020423A0020453A00543A006F6B200018
:1075B0006E2F61003F546F736869626120466C6191
:1075C0007368416972204765744950206661696C2F
:1075D00065640A00000125311D0C4024301C0B4558
:1075E000232F1B0A17FF0406222B1A0336373538C0
:1075F0002569206D696E2C2025692073656300491B
:107600006E76616C6964204D20636F64653A202555
:10761000730A004D65736820626564206C65766549
:107620006C696E67206E6F74206163746976652E75
:10763000002020000A4D6561737572656420706FCB
:10764000696E74733A000A5A207365617263682028
:107650006865696768743A20004E756D20582C592A
:107660003A200050494E44412070726F6265206399
:10767000616C6962726174696F6E20737461727497
:1076800000473238205730004E6F2050494E444159
:1076900020746865726D6973746F7200736574002D
:1076A0006E6F7A7A6C65004D424C004652004C7AFF
:1076B000004C616E6700315F37356D6D5F4D4B3348
:1076C000532D45494E53795F3130612D4533447612
:1076D0003666756C6C0052657600332E31322E3072
:1076E0002D5243312D353537360046697200534EE1
:1076F00020696E76616C696400534E0052455345B3
:1077000054004D4D55524553004D32340075766C42
:107710006F0046414E0046414E50494E545354006E
:107720005052555341005345545F43484F505F00FA
:107730005345545F535445505F005345545F574180
:1077400056455F00544D435F0043524153485F43E9
:10775000414E43454C0043524153485F5245434FCD
:107760005645520043524153485F444554454354A3
:1077700045440043524153485F004D3120004D3095
:10778000004D31313700FFFFFFFF473120583530C2
:10779000205935352045332E3632373733004731BF
:1077A0002058323030205935352045302E34393389
:1077B000383600473120583230302059373520458F
:1077C000332E363237373300473120583530205981
:1077D00037352045302E343933383600473120587C
:1077E0003530205939352045332E3632373733007E
:1077F00047312058323030205939352045302E3429
:107800003933383600473120583230302059313141
:10781000352045332E36323737330047312058353F
:107820003020593131352045302E34393338360047
:1078300047312058353020593133352045332E36E5
:107840003237373300473120583230302059313306
:10785000352045302E363631373400473120583206
:10786000303020593135352045322E3632373733D6
:1078700000473120583130302059313535204532DC
:107880000047312058373520593135352045322EC3
:1078900035004731204631303830004731205A30EA
:1078A0002E3135302046373230302E3030300047E0
:1078B0003120583530205931353500473120463494
:1078C000303030004D3230342053313030300047CA
:1078D00031205A352046373230302E303030004794
:1078E0003120452D312E3530303030204632313088
:1078F000302E3030303030004D38330047393000D2
:10790000473231004739322045302E300047312090
:1079100058352E302045342E302046313030302E30
:1079200030004731205A302E32302046313030304E
:107930002E30004731205835352E30204532352045
:1079400046313430302E3000473120592D322E3020
:107950002046313030302E3000473120583234301C
:107960002E30204532352E30202046323230302E17
:1079700030004739322045302E30004731205A3010
:107980002E332046313030302E30004731205835EC
:10799000352E302045382E302046323030302E30D3
:1079A0000047312058352E30204533322E302046C6
:1079B000313830302E30004731205835352E3020C8
:1079C0004533322E302046313037332E3000504987
:1079D0004E44412063616C6962726174696F6E200C
:1079E0006661696C65642E20436F6E74696E75659F
:1079F0002077697468207072657373696E6720748C
:107A00006865206B6E6F622E0050494E44412063C2
:107A1000616C6962726174696F6E20646F6E652E4D
:107A200020436F6E74696E75652077697468207085
:107A300072657373696E6720746865206B6E6F6220
:107A40002E00473830004D3435004D3435205A0073
:107A50004737360057697A617264207374617465C0
:107A60003A2025640A004578706572696D656E7408
:107A7000616C004D3834004D3434004732382057A3
:107A800000200A200A20004D363030004D203834C6
:107A9000004D3834004D3234004D32332025730010
:107AA000052E2E00257500593A202575202D3E20E3
:107AB0002E2E2E00257500583A202575202D3E20AB
:107AC0002E2E2E002533642F30002533642F3000F6
:107AD0004D38340025632041584953205347313DE8
:107AE00025640A00486F74656E6400426564005A3C
:107AF00000590058002D2D2D2D2D2D2D2D2D2D2DE6
:107B00002D2D2D2D2D2D2D2D2D004F4B00435A5059
:107B100058496E76616C696453657269616C4E7226
:107B200000473120583530205933352045252D2E3A
:107B3000336600AF789B789278817871785B78456E
:107B40007830781B780578F077DC77C877B3779E44
:107B5000778A7704790079FC78F878DF78CF78C471
:107B600078BB78473120583130302E3020453132C3
:107B70002E352046313030302E30004731205836F7
:107B8000302E302045392E302046313030302E30E6
:107B900000B779A1798B797B7972795979487933F2
:107BA0007922790D79542564004731205A302E34DA
:107BB0002046313030302E3000473120592D332EC1
:107BC000302046313030302E30004D3833004739C8
:107BD000322045302E3000473238004D31303900E8
:107BE0004D313930004D313037004D38342058593F
:107BF000004D313039205332383000473120583170
:107C0000323520593130205A31353020463130302C
:107C100030004732382057004D353030004D333179
:107C200030205331004D333130204120463000495F
:107C30006E76616C6964205049442063616C2E202B
:107C4000726573756C74732E204E6F742073746F2D
:107C500072656420746F20454550524F4D2E004D83
:107C6000353030004D3330312050252E32662049DA
:107C7000252E32662044252E3266004D33303320C7
:107C800045302053253375004D3834004D373032A0
:107C900020430047312058313020593138302046B8
:107CA00034303030004731205A31302046313330C3
:107CB000302E303030004D313430205330004D31D3
:107CC000303420533000473120452D302E303735A9
:107CD00030302046323130302E3030303030004DB0
:107CE000313037005243004445560042455441006C
:107CF000414C5048410003000C000000000050526D
:107D0000555341334446570000002100240027000A
:107D10002A002D003000330001010000040107019A
:107D20000A0100002200250028002B002E0031004F
:107D3000340002010000050108010B0100002000D1
:107D40002300260029002C002F0032000001000033
:107D500003010601090105050505070508080808CE
:107D6000020202020A0A08080404040401010101D3
:107D700001010101030303030303030304070707CE
:107D80000C0C0C0C0C0C0C0C020202020606060673
:107D9000060606060B0B0B0B0B0B0B0B07070A0A51
:107DA0000A0A0A0A0505050404040808010210204D
:107DB0002008081020401020408002010201080421
:107DC00002010102040810204080804020100804B5
:107DD000020180040201804020100804020108040E
:107DE0000201010204081020408001020408102052
:107DF000408010080408801020400440801020407B
:107E0000048000000A0B02090C0D0E080703040190
:107E10000000000000000000000000000000000062
:107E2000000000000000000000000000000012112F
:107E30001000000000000000000000000000000032
:107E40000000000000000000000000000000000032
:107E50000000000000000000332E31322E302D5281
:107E60004331000A204F726967696E616C2050725D
:107E70007573612069330A20202050727573612068
:107E800052657365617263680A2532302E32305351
:107E9000004C616E6775616765207570646174651B
:107EA0002E00435A5058003B53006164635F696E73
:107EB000697400200A200A200A2000416C6C2044CA
:107EC00061746100536572766963652070726570D4
:107ED000005368697070696E672070726570005336
:107EE000746174697374696373004C616E67756162
:107EF00067650045524153494E4720616C6C2064D0
:107F000061746100466163746F7279205245534514
:107F1000540044495341424C454400454E41424C73
:107F20004544004653656E736F7220255300494ED9
:107F30005434004D4B33534D4D553253004E4F4D3D
:107F40004B3353002E014E4F4354554100414C5486
:107F500046414E00446563203239203230323200CF
:107F6000436F6D70696C65643A2000286E6F6E65B2
:107F70002C2064656661756C7420636F6E6669673A
:107F800029004465632032392032303232203137C3
:107F90003A30323A35320020332E31322E302D52E3
:107FA00043312D3535373600737461727400534E8A
:107FB00020757064617465206661696C6564005346
:107FC0004E207570646174656400435A50580043D4
:107FD000524153485F444554454354454458590021
:107FE00043524153485F4445544543544544590026
:107FF00043524153485F4445544543544544580017
:108000004D32390020557067726164696E6720785F
:10801000666C6173680A20446F206E6F7420646917
:1080200073636F6E6E65637421007732357832301A
:10803000636C5F63666D0A00773235783230636C4B
:108040005F656E7465720A0073746172740A00244D
:10805000F4D43050C38E20C2A24017828B7011120C
:108060007A910D816CD90AA861E108C75866076149
:108070005143061E4B5D05C145A7041A4111040971
:108080003D9803713931034036DB0265339102D4E8
:10809000305402802E1D02632CEE01752AC501B0FA
:1080A00028A001102781018F2564012B244B01E0BA
:1080B000223401AC211F018D200D01801FFC0084A2
:1080C0001EED00971DDF00B81CD200E61BC6002085
:1080D0001BBC00641AB200B219A8000A19A0006AF9
:1080E000189900D117910040178B00B51684003104
:1080F000167E00B31579003A157300C7146F005847
:10810000146A00EE1366008813630025135E00C72F
:10811000125B006C12570015125400C1115100700F
:10812000114F0021114B00D61049008D1047004619
:1081300010440002104200C00F4000800F3E004279
:108140000F3C00060F3B00CB0E3800930E37005C4F
:108150000E3500270E3400F30D3200C10D310090B2
:108160000D3000600D2E00320D2D00050D2C00D9B4
:108170000C2B00AE0C2900850C29005C0C27003567
:108180000C27000E0C2600E80B2400C40B2400A0D2
:108190000B23007D0B23005A0B2100390B21001803
:1081A0000B2000F80A1F00D90A1E00BB0A1E009D02
:1081B0000A1D00800A1D00630A1C00470A1B002CD0
:1081C0000A1B00110A1A00F7091A00DD091900C478
:1081D000091900AB091900920917007B09180063FF
:1081E0000917004C09160036091600200916000A66
:1081F000091500F5081500E0081400CC081400B8B3
:10820000081400A4081400900813007D0812006BE5
:108210000813005808120046081200340811002301
:108220000811001208110001081100F0071000E009
:10823000071000D0071000C0071000B0070F00A102
:1082400007100091070E0083070F0074070F0065E9
:10825000070E0057070E0049070E003B070D002EC2
:10826000070E0020070D0013070D0006070D00F98B
:10827000060C00ED060D00E0060C00D4060C00C84C
:10828000060C00BC060C00B0060C00A4060B0099FE
:10829000060C008D060B0082060B0077060B006CA7
:1082A000060B0061060A0057060B004C060A004246
:1082B000060A0038060A002E060A0024060A001ADA
:1082C000060A001006090007060A00FD050900F469
:1082D000050900EB050900E2050900D9050900D0F0
:1082E000050900C7050900BE050900B5050800AD70
:1082F000050800A50509009C050800940508008CE8
:10830000050800840508007C050800740508006C59
:10831000050700650508005D050700560508004EC5
:10832000050700470507004005080038050700312C
:108330000507002A050700230507001C050600168F
:108340000507000F0507000805060002050700FBEA
:10835000040600F5040700EE040600E8040600E247
:10836000040700DB040600D5040600CF040600C99C
:10837000040600C3040600BD040600B7040600B1ED
:10838000040500AC040600A6040600A00405009B3A
:1083900004060095040500900406008A0405008583
:1083A000040500800406007A0405007504050070C9
:1083B0000405006B04050066040500610405005C0B
:1083C00004050057040500520405004D040500484B
:1083D000040500430405003E0404003A040500358A
:1083E000040500300404002C0405002704040023C5
:1083F0000405001E0404001A0404001604050011FC
:108400000404000D04040009040500040404000031
:10841000040400FC030400F8030400F4030400F067
:10842000030400EC030400E8030400E4030400E098
:10843000030400DC030400D8030400D4030400D0C8
:10844000030400CC030400C8030300C50303002495
:10845000F404D9201BC40C5C0E9804C4095F0265A7
:10846000077101F405F900FB04B30048048700C15B
:108470000369005803550003034500BE023A008417
:1084800002310053022A002902250004022000E4E0
:10849000011C00C8011900AF0117009801140084E5
:1084A000011300710110006101100051010E004321
:1084B000010D0036010B002B010B0020010B0015F4
:1084C0000109000C01090003010800FB000800F38A
:1084D000000800EB000700E4000600DE000600D8FC
:1084E000000600D2000600CC000500C7000500C24F
:1084F000000500BD000400B9000400B5000400B18F
:10850000000400AD000400A9000400A5000300A2BF
:108510000003009F0004009B0003009800030095E7
:1085200000020093000300900003008D0002008B06
:10853000000300880002008600020084000300811E
:108540000002007F0002007D0002007B0002007933
:108550000002007700010076000200740002007241
:10856000000100710002006F0002006D0001006C4C
:108570000002006A00010069000200670001006655
:10858000000100650001006400020062000100615A
:10859000000100600001005F0002005D0001005C5E
:1085A0000001005B0001005A000100590001005861
:1085B0000001005700010056000100550001005461
:1085C000000100530000005300010052000100515F
:1085D000000100500001004F0001004E0000004E5D
:1085E0000001004D0001004C0001004B0000004B59
:1085F0000001004A00010049000100480000004855
:10860000000100470001004600000046000100454F
:108610000000004500010044000100430000004349
:108620000001004200000042000100410000004142
:10863000000100400001003F0000003F0001003E3B
:108640000000003E0001003D0000003D0001003C34
:108650000000003C0000003C0001003B0000003B2B
:108660000001003A0000003A000100390000003922
:108670000001003800000038000000380001003719
:108680000000003700010036000000360000003610
:108690000001003500000035000000350001003405
:1086A00000000034000000340001003300000033FB
:1086B00000000033000100320000003200000032F0
:1086C00000010031000000310000003100010030E5
:1086D00000000030000000300001002F0000002FDB
:1086E0000000002F0000002F0001002E0000002ECF
:1086F0000000002E0001002D0000002D0000002DC4
:108700000000002D0001002C0000002C0000002CB7
:108710000000002C0001002B0000002B0000002BAB
:108720000000002B0001002A0000002A0000002A9F
:108730000000002A00010029000000290000002993
:108740000000002900000029000100280000002886
:108750000000002800000028000000280001002779
:10876000000000270000002700000027000000276D
:108770000001002600000026000000260000002660
:108780000000002600010025000000250000002553
:108790000000002500000025000000250001002445
:1087A0000000002400000024000000240000002439
:1087B000000100230000002300000023000000232C
:1087C000000000230000002300000023000100221D
:1087D0000000002200000022000000220000002211
:1087E0000000002200010021000000210000002103
:1087F00000000021000000210000002100000021F5
:1088000000010020000000200000002000000020E7
:1088100000000020000000200000002000000020D8
:108820000001001F0000001F0000001F0000001FCB
:108830000000001F0000001F0000001F0001001EBC
:108840000000001E0000001E0000001E000000507E
:108850004944204175746F74756E652066696E6950
:1088600073686564212050757420746865206C619C
:108870007374204B702C204B6920616E64204B6414
:1088800020636F6E7374616E74732066726F6D20F7
:1088900061626F766520696E746F20436F6E6669E2
:1088A0006775726174696F6E2E680050494420418B
:1088B00075746F74756E65206661696C65642120DE
:1088C00074696D656F75740020403A00543A004237
:1088D0003A00504944204175746F74756E65206686
:1088E00061696C6564212054656D70657261747591
:1088F000726520746F6F206869676800204B643A66
:108900002000204B693A2000204B703A2000204381
:108910006C61737369632050494420002054753A98
:108920002000204B753A2000206D61783A2000200D
:108930006D696E3A200020643A20002062696173FC
:108940003A2000504944204175746F74756E65205B
:10895000737461727400504944204175746F74756A
:108960006E65206661696C65642E204261642065D5
:1089700078747275646572206E756D6265722E0012
:10898000544D4C20256420256420257820256C78C2
:1089900020256C780A004D494E54454D50004D49F4
:1089A0004E54454D5020424544004D494E54454D8E
:1089B0005020414D42004D415854454D50004D41CD
:1089C0005854454D5020424544004D415854454D62
:1089D0005020414D4200544D3A206572726F722012
:1089E000636C656172656400544D3A206572726F04
:1089F00072207472696767657265642100544D3A2C
:108A0000206572726F72207C25667C3E25660A00A6
:108A100070012C0190012701B0012201C0011D014C
:108A2000F00118011002130130020E016002090169
:108A300090020401C002FF000003FA004003F500A9
:108A40008003F000D003EB002004E6007004E10096
:108A5000E004DC004005D700C005D2004006CD0090
:108A6000D006C8008007C3003008BE00F008B90077
:108A7000C009B400B00AAF00B00BAA00D00CA5002A
:108A8000000EA000500F9B00C010960050129100E5
